{
  "_format": "hh-sol-artifact-1",
  "contractName": "NFTContract",
  "sourceName": "contracts/NFTContract.sol",
  "abi": [
    {
      "inputs": [],
      "stateMutability": "nonpayable",
      "type": "constructor"
    },
    {
      "anonymous": false,
      "inputs": [
        {
          "indexed": true,
          "internalType": "address",
          "name": "owner",
          "type": "address"
        },
        {
          "indexed": true,
          "internalType": "address",
          "name": "approved",
          "type": "address"
        },
        {
          "indexed": true,
          "internalType": "uint256",
          "name": "tokenId",
          "type": "uint256"
        }
      ],
      "name": "Approval",
      "type": "event"
    },
    {
      "anonymous": false,
      "inputs": [
        {
          "indexed": true,
          "internalType": "address",
          "name": "owner",
          "type": "address"
        },
        {
          "indexed": true,
          "internalType": "address",
          "name": "operator",
          "type": "address"
        },
        {
          "indexed": false,
          "internalType": "bool",
          "name": "approved",
          "type": "bool"
        }
      ],
      "name": "ApprovalForAll",
      "type": "event"
    },
    {
      "anonymous": false,
      "inputs": [
        {
          "indexed": true,
          "internalType": "address",
          "name": "previousOwner",
          "type": "address"
        },
        {
          "indexed": true,
          "internalType": "address",
          "name": "newOwner",
          "type": "address"
        }
      ],
      "name": "OwnershipTransferred",
      "type": "event"
    },
    {
      "anonymous": false,
      "inputs": [
        {
          "indexed": true,
          "internalType": "address",
          "name": "from",
          "type": "address"
        },
        {
          "indexed": true,
          "internalType": "address",
          "name": "to",
          "type": "address"
        },
        {
          "indexed": true,
          "internalType": "uint256",
          "name": "tokenId",
          "type": "uint256"
        }
      ],
      "name": "Transfer",
      "type": "event"
    },
    {
      "inputs": [],
      "name": "all_Prompt_Descriptions",
      "outputs": [
        {
          "internalType": "string[]",
          "name": "",
          "type": "string[]"
        }
      ],
      "stateMutability": "view",
      "type": "function"
    },
    {
      "inputs": [],
      "name": "all_Token_URLs",
      "outputs": [
        {
          "internalType": "string[]",
          "name": "",
          "type": "string[]"
        }
      ],
      "stateMutability": "view",
      "type": "function"
    },
    {
      "inputs": [
        {
          "internalType": "address",
          "name": "to",
          "type": "address"
        },
        {
          "internalType": "uint256",
          "name": "tokenId",
          "type": "uint256"
        }
      ],
      "name": "approve",
      "outputs": [],
      "stateMutability": "nonpayable",
      "type": "function"
    },
    {
      "inputs": [
        {
          "internalType": "address",
          "name": "owner",
          "type": "address"
        }
      ],
      "name": "balanceOf",
      "outputs": [
        {
          "internalType": "uint256",
          "name": "",
          "type": "uint256"
        }
      ],
      "stateMutability": "view",
      "type": "function"
    },
    {
      "inputs": [],
      "name": "count",
      "outputs": [
        {
          "internalType": "uint256",
          "name": "",
          "type": "uint256"
        }
      ],
      "stateMutability": "view",
      "type": "function"
    },
    {
      "inputs": [
        {
          "internalType": "uint256",
          "name": "tokenId",
          "type": "uint256"
        }
      ],
      "name": "getApproved",
      "outputs": [
        {
          "internalType": "address",
          "name": "",
          "type": "address"
        }
      ],
      "stateMutability": "view",
      "type": "function"
    },
    {
      "inputs": [
        {
          "internalType": "address",
          "name": "owner",
          "type": "address"
        },
        {
          "internalType": "address",
          "name": "operator",
          "type": "address"
        }
      ],
      "name": "isApprovedForAll",
      "outputs": [
        {
          "internalType": "bool",
          "name": "",
          "type": "bool"
        }
      ],
      "stateMutability": "view",
      "type": "function"
    },
    {
      "inputs": [
        {
          "internalType": "string",
          "name": "nft_URL",
          "type": "string"
        },
        {
          "internalType": "string",
          "name": "prompt",
          "type": "string"
        }
      ],
      "name": "mintNFT",
      "outputs": [],
      "stateMutability": "nonpayable",
      "type": "function"
    },
    {
      "inputs": [],
      "name": "name",
      "outputs": [
        {
          "internalType": "string",
          "name": "",
          "type": "string"
        }
      ],
      "stateMutability": "view",
      "type": "function"
    },
    {
      "inputs": [],
      "name": "owner",
      "outputs": [
        {
          "internalType": "address",
          "name": "",
          "type": "address"
        }
      ],
      "stateMutability": "view",
      "type": "function"
    },
    {
      "inputs": [
        {
          "internalType": "uint256",
          "name": "tokenId",
          "type": "uint256"
        }
      ],
      "name": "ownerOf",
      "outputs": [
        {
          "internalType": "address",
          "name": "",
          "type": "address"
        }
      ],
      "stateMutability": "view",
      "type": "function"
    },
    {
      "inputs": [
        {
          "internalType": "uint256",
          "name": "token_Id",
          "type": "uint256"
        }
      ],
      "name": "prompt_Description",
      "outputs": [
        {
          "internalType": "string",
          "name": "",
          "type": "string"
        }
      ],
      "stateMutability": "view",
      "type": "function"
    },
    {
      "inputs": [],
      "name": "renounceOwnership",
      "outputs": [],
      "stateMutability": "nonpayable",
      "type": "function"
    },
    {
      "inputs": [
        {
          "internalType": "address",
          "name": "from",
          "type": "address"
        },
        {
          "internalType": "address",
          "name": "to",
          "type": "address"
        },
        {
          "internalType": "uint256",
          "name": "tokenId",
          "type": "uint256"
        }
      ],
      "name": "safeTransferFrom",
      "outputs": [],
      "stateMutability": "nonpayable",
      "type": "function"
    },
    {
      "inputs": [
        {
          "internalType": "address",
          "name": "from",
          "type": "address"
        },
        {
          "internalType": "address",
          "name": "to",
          "type": "address"
        },
        {
          "internalType": "uint256",
          "name": "tokenId",
          "type": "uint256"
        },
        {
          "internalType": "bytes",
          "name": "data",
          "type": "bytes"
        }
      ],
      "name": "safeTransferFrom",
      "outputs": [],
      "stateMutability": "nonpayable",
      "type": "function"
    },
    {
      "inputs": [
        {
          "internalType": "address",
          "name": "operator",
          "type": "address"
        },
        {
          "internalType": "bool",
          "name": "approved",
          "type": "bool"
        }
      ],
      "name": "setApprovalForAll",
      "outputs": [],
      "stateMutability": "nonpayable",
      "type": "function"
    },
    {
      "inputs": [
        {
          "internalType": "bytes4",
          "name": "interfaceId",
          "type": "bytes4"
        }
      ],
      "name": "supportsInterface",
      "outputs": [
        {
          "internalType": "bool",
          "name": "",
          "type": "bool"
        }
      ],
      "stateMutability": "view",
      "type": "function"
    },
    {
      "inputs": [],
      "name": "symbol",
      "outputs": [
        {
          "internalType": "string",
          "name": "",
          "type": "string"
        }
      ],
      "stateMutability": "view",
      "type": "function"
    },
    {
      "inputs": [
        {
          "internalType": "uint256",
          "name": "tokenId",
          "type": "uint256"
        }
      ],
      "name": "tokenURI",
      "outputs": [
        {
          "internalType": "string",
          "name": "",
          "type": "string"
        }
      ],
      "stateMutability": "view",
      "type": "function"
    },
    {
      "inputs": [
        {
          "internalType": "uint256",
          "name": "token_Id",
          "type": "uint256"
        }
      ],
      "name": "token_URL",
      "outputs": [
        {
          "internalType": "string",
          "name": "",
          "type": "string"
        }
      ],
      "stateMutability": "view",
      "type": "function"
    },
    {
      "inputs": [
        {
          "internalType": "address",
          "name": "from",
          "type": "address"
        },
        {
          "internalType": "address",
          "name": "to",
          "type": "address"
        },
        {
          "internalType": "uint256",
          "name": "tokenId",
          "type": "uint256"
        }
      ],
      "name": "transferFrom",
      "outputs": [],
      "stateMutability": "nonpayable",
      "type": "function"
    },
    {
      "inputs": [
        {
          "internalType": "address",
          "name": "newOwner",
          "type": "address"
        }
      ],
      "name": "transferOwnership",
      "outputs": [],
      "stateMutability": "nonpayable",
      "type": "function"
    }
  ],
  "bytecode": "0x608060405260006007553480156200001657600080fd5b506040518060400160405280600581526020017f4d794e46540000000000000000000000000000000000000000000000000000008152506040518060400160405280600381526020017f4d46540000000000000000000000000000000000000000000000000000000000815250816000908162000094919062000417565b508060019081620000a6919062000417565b505050620000c9620000bd620000cf60201b60201c565b620000d760201b60201c565b620004fe565b600033905090565b6000600660009054906101000a900473ffffffffffffffffffffffffffffffffffffffff16905081600660006101000a81548173ffffffffffffffffffffffffffffffffffffffff021916908373ffffffffffffffffffffffffffffffffffffffff1602179055508173ffffffffffffffffffffffffffffffffffffffff168173ffffffffffffffffffffffffffffffffffffffff167f8be0079c531659141344cd1fd0a4f28419497f9722a3daafe3b4186f6b6457e060405160405180910390a35050565b600081519050919050565b7f4e487b7100000000000000000000000000000000000000000000000000000000600052604160045260246000fd5b7f4e487b7100000000000000000000000000000000000000000000000000000000600052602260045260246000fd5b600060028204905060018216806200021f57607f821691505b602082108103620002355762000234620001d7565b5b50919050565b60008190508160005260206000209050919050565b60006020601f8301049050919050565b600082821b905092915050565b6000600883026200029f7fffffffffffffffffffffffffffffffffffffffffffffffffffffffffffffffff8262000260565b620002ab868362000260565b95508019841693508086168417925050509392505050565b6000819050919050565b6000819050919050565b6000620002f8620002f2620002ec84620002c3565b620002cd565b620002c3565b9050919050565b6000819050919050565b6200031483620002d7565b6200032c6200032382620002ff565b8484546200026d565b825550505050565b600090565b6200034362000334565b6200035081848462000309565b505050565b5b8181101562000378576200036c60008262000339565b60018101905062000356565b5050565b601f821115620003c75762000391816200023b565b6200039c8462000250565b81016020851015620003ac578190505b620003c4620003bb8562000250565b83018262000355565b50505b505050565b600082821c905092915050565b6000620003ec60001984600802620003cc565b1980831691505092915050565b6000620004078383620003d9565b9150826002028217905092915050565b62000422826200019d565b67ffffffffffffffff8111156200043e576200043d620001a8565b5b6200044a825462000206565b620004578282856200037c565b600060209050601f8311600181146200048f57600084156200047a578287015190505b620004868582620003f9565b865550620004f6565b601f1984166200049f866200023b565b60005b82811015620004c957848901518255600182019150602085019450602081019050620004a2565b86831015620004e95784890151620004e5601f891682620003d9565b8355505b6001600288020188555050505b505050505050565b6134a7806200050e6000396000f3fe608060405234801561001057600080fd5b50600436106101425760003560e01c8063715018a6116100b8578063b88d4fde1161007c578063b88d4fde14610365578063beb19b6014610381578063c87b56dd146103b1578063e9605544146103e1578063e985e9c5146103fd578063f2fde38b1461042d57610142565b8063715018a6146102e55780638da5cb5b146102ef5780638eeec7411461030d57806395d89b411461032b578063a22cb4651461034957610142565b806323b872dd1161010a57806323b872dd146101ff5780632580ddd11461021b57806342842e0e1461024b578063501c9227146102675780636352211e1461028557806370a08231146102b557610142565b806301ffc9a71461014757806306661abd1461017757806306fdde0314610195578063081812fc146101b3578063095ea7b3146101e3575b600080fd5b610161600480360381019061015c9190611fe2565b610449565b60405161016e919061202a565b60405180910390f35b61017f61052b565b60405161018c919061205e565b60405180910390f35b61019d610531565b6040516101aa9190612109565b60405180910390f35b6101cd60048036038101906101c89190612157565b6105c3565b6040516101da91906121c5565b60405180910390f35b6101fd60048036038101906101f8919061220c565b610609565b005b6102196004803603810190610214919061224c565b610720565b005b61023560048036038101906102309190612157565b610780565b6040516102429190612109565b60405180910390f35b6102656004803603810190610260919061224c565b61086a565b005b61026f61088a565b60405161027c91906123ab565b60405180910390f35b61029f600480360381019061029a9190612157565b6109c2565b6040516102ac91906121c5565b60405180910390f35b6102cf60048036038101906102ca91906123cd565b610a48565b6040516102dc919061205e565b60405180910390f35b6102ed610aff565b005b6102f7610b13565b60405161030491906121c5565b60405180910390f35b610315610b3d565b60405161032291906123ab565b60405180910390f35b610333610c75565b6040516103409190612109565b60405180910390f35b610363600480360381019061035e9190612426565b610d07565b005b61037f600480360381019061037a919061259b565b610d1d565b005b61039b60048036038101906103969190612157565b610d7f565b6040516103a89190612109565b60405180910390f35b6103cb60048036038101906103c69190612157565b610e69565b6040516103d89190612109565b60405180910390f35b6103fb60048036038101906103f691906126bf565b610ed1565b005b61041760048036038101906104129190612737565b610f4d565b604051610424919061202a565b60405180910390f35b610447600480360381019061044291906123cd565b610fe1565b005b60007f80ac58cd000000000000000000000000000000000000000000000000000000007bffffffffffffffffffffffffffffffffffffffffffffffffffffffff1916827bffffffffffffffffffffffffffffffffffffffffffffffffffffffff1916148061051457507f5b5e139f000000000000000000000000000000000000000000000000000000007bffffffffffffffffffffffffffffffffffffffffffffffffffffffff1916827bffffffffffffffffffffffffffffffffffffffffffffffffffffffff1916145b80610524575061052382611064565b5b9050919050565b60075481565b606060008054610540906127a6565b80601f016020809104026020016040519081016040528092919081815260200182805461056c906127a6565b80156105b95780601f1061058e576101008083540402835291602001916105b9565b820191906000526020600020905b81548152906001019060200180831161059c57829003601f168201915b5050505050905090565b60006105ce826110ce565b6004600083815260200190815260200160002060009054906101000a900473ffffffffffffffffffffffffffffffffffffffff169050919050565b6000610614826109c2565b90508073ffffffffffffffffffffffffffffffffffffffff168373ffffffffffffffffffffffffffffffffffffffff1603610684576040517f08c379a000000000000000000000000000000000000000000000000000000000815260040161067b90612849565b60405180910390fd5b8073ffffffffffffffffffffffffffffffffffffffff166106a3611119565b73ffffffffffffffffffffffffffffffffffffffff1614806106d257506106d1816106cc611119565b610f4d565b5b610711576040517f08c379a0000000000000000000000000000000000000000000000000000000008152600401610708906128db565b60405180910390fd5b61071b8383611121565b505050565b61073161072b611119565b826111da565b610770576040517f08c379a00000000000000000000000000000000000000000000000000000000081526004016107679061296d565b60405180910390fd5b61077b83838361126f565b505050565b60606007548211156107c7576040517f08c379a00000000000000000000000000000000000000000000000000000000081526004016107be906129ff565b60405180910390fd5b6009600083815260200190815260200160002080546107e5906127a6565b80601f0160208091040260200160405190810160405280929190818152602001828054610811906127a6565b801561085e5780601f106108335761010080835404028352916020019161085e565b820191906000526020600020905b81548152906001019060200180831161084157829003601f168201915b50505050509050919050565b61088583838360405180602001604052806000815250610d1d565b505050565b6060600060075467ffffffffffffffff8111156108aa576108a9612470565b5b6040519080825280602002602001820160405280156108dd57816020015b60608152602001906001900390816108c85790505b50905060005b6007548110156109ba5760086000828152602001908152602001600020805461090b906127a6565b80601f0160208091040260200160405190810160405280929190818152602001828054610937906127a6565b80156109845780601f1061095957610100808354040283529160200191610984565b820191906000526020600020905b81548152906001019060200180831161096757829003601f168201915b505050505082828151811061099c5761099b612a1f565b5b602002602001018190525080806109b290612a7d565b9150506108e3565b508091505090565b6000806109ce83611568565b9050600073ffffffffffffffffffffffffffffffffffffffff168173ffffffffffffffffffffffffffffffffffffffff1603610a3f576040517f08c379a0000000000000000000000000000000000000000000000000000000008152600401610a3690612b11565b60405180910390fd5b80915050919050565b60008073ffffffffffffffffffffffffffffffffffffffff168273ffffffffffffffffffffffffffffffffffffffff1603610ab8576040517f08c379a0000000000000000000000000000000000000000000000000000000008152600401610aaf90612ba3565b60405180910390fd5b600360008373ffffffffffffffffffffffffffffffffffffffff1673ffffffffffffffffffffffffffffffffffffffff168152602001908152602001600020549050919050565b610b076115a5565b610b116000611623565b565b6000600660009054906101000a900473ffffffffffffffffffffffffffffffffffffffff16905090565b6060600060075467ffffffffffffffff811115610b5d57610b5c612470565b5b604051908082528060200260200182016040528015610b9057816020015b6060815260200190600190039081610b7b5790505b50905060005b600754811015610c6d57600960008281526020019081526020016000208054610bbe906127a6565b80601f0160208091040260200160405190810160405280929190818152602001828054610bea906127a6565b8015610c375780601f10610c0c57610100808354040283529160200191610c37565b820191906000526020600020905b815481529060010190602001808311610c1a57829003601f168201915b5050505050828281518110610c4f57610c4e612a1f565b5b60200260200101819052508080610c6590612a7d565b915050610b96565b508091505090565b606060018054610c84906127a6565b80601f0160208091040260200160405190810160405280929190818152602001828054610cb0906127a6565b8015610cfd5780601f10610cd257610100808354040283529160200191610cfd565b820191906000526020600020905b815481529060010190602001808311610ce057829003601f168201915b5050505050905090565b610d19610d12611119565b83836116e9565b5050565b610d2e610d28611119565b836111da565b610d6d576040517f08c379a0000000000000000000000000000000000000000000000000000000008152600401610d649061296d565b60405180910390fd5b610d7984848484611855565b50505050565b6060600754821115610dc6576040517f08c379a0000000000000000000000000000000000000000000000000000000008152600401610dbd90612c35565b60405180910390fd5b600860008381526020019081526020016000208054610de4906127a6565b80601f0160208091040260200160405190810160405280929190818152602001828054610e10906127a6565b8015610e5d5780601f10610e3257610100808354040283529160200191610e5d565b820191906000526020600020905b815481529060010190602001808311610e4057829003601f168201915b50505050509050919050565b6060610e74826110ce565b6000610e7e6118b1565b90506000815111610e9e5760405180602001604052806000815250610ec9565b80610ea8846118c8565b604051602001610eb9929190612c91565b6040516020818303038152906040525b915050919050565b610ed96115a5565b60006007549050610ef1610eeb610b13565b82611996565b82600860008381526020019081526020016000209081610f119190612e61565b5081600960008381526020019081526020016000209081610f329190612e61565b506001600754610f429190612f33565b600781905550505050565b6000600560008473ffffffffffffffffffffffffffffffffffffffff1673ffffffffffffffffffffffffffffffffffffffff16815260200190815260200160002060008373ffffffffffffffffffffffffffffffffffffffff1673ffffffffffffffffffffffffffffffffffffffff16815260200190815260200160002060009054906101000a900460ff16905092915050565b610fe96115a5565b600073ffffffffffffffffffffffffffffffffffffffff168173ffffffffffffffffffffffffffffffffffffffff1603611058576040517f08c379a000000000000000000000000000000000000000000000000000000000815260040161104f90612fd9565b60405180910390fd5b61106181611623565b50565b60007f01ffc9a7000000000000000000000000000000000000000000000000000000007bffffffffffffffffffffffffffffffffffffffffffffffffffffffff1916827bffffffffffffffffffffffffffffffffffffffffffffffffffffffff1916149050919050565b6110d7816119b4565b611116576040517f08c379a000000000000000000000000000000000000000000000000000000000815260040161110d90612b11565b60405180910390fd5b50565b600033905090565b816004600083815260200190815260200160002060006101000a81548173ffffffffffffffffffffffffffffffffffffffff021916908373ffffffffffffffffffffffffffffffffffffffff160217905550808273ffffffffffffffffffffffffffffffffffffffff16611194836109c2565b73ffffffffffffffffffffffffffffffffffffffff167f8c5be1e5ebec7d5bd14f71427d1e84f3dd0314c0f7b2291e5b200ac8c7c3b92560405160405180910390a45050565b6000806111e6836109c2565b90508073ffffffffffffffffffffffffffffffffffffffff168473ffffffffffffffffffffffffffffffffffffffff16148061122857506112278185610f4d565b5b8061126657508373ffffffffffffffffffffffffffffffffffffffff1661124e846105c3565b73ffffffffffffffffffffffffffffffffffffffff16145b91505092915050565b8273ffffffffffffffffffffffffffffffffffffffff1661128f826109c2565b73ffffffffffffffffffffffffffffffffffffffff16146112e5576040517f08c379a00000000000000000000000000000000000000000000000000000000081526004016112dc9061306b565b60405180910390fd5b600073ffffffffffffffffffffffffffffffffffffffff168273ffffffffffffffffffffffffffffffffffffffff1603611354576040517f08c379a000000000000000000000000000000000000000000000000000000000815260040161134b906130fd565b60405180910390fd5b61136183838360016119f5565b8273ffffffffffffffffffffffffffffffffffffffff16611381826109c2565b73ffffffffffffffffffffffffffffffffffffffff16146113d7576040517f08c379a00000000000000000000000000000000000000000000000000000000081526004016113ce9061306b565b60405180910390fd5b6004600082815260200190815260200160002060006101000a81549073ffffffffffffffffffffffffffffffffffffffff02191690556001600360008573ffffffffffffffffffffffffffffffffffffffff1673ffffffffffffffffffffffffffffffffffffffff168152602001908152602001600020600082825403925050819055506001600360008473ffffffffffffffffffffffffffffffffffffffff1673ffffffffffffffffffffffffffffffffffffffff16815260200190815260200160002060008282540192505081905550816002600083815260200190815260200160002060006101000a81548173ffffffffffffffffffffffffffffffffffffffff021916908373ffffffffffffffffffffffffffffffffffffffff160217905550808273ffffffffffffffffffffffffffffffffffffffff168473ffffffffffffffffffffffffffffffffffffffff167fddf252ad1be2c89b69c2b068fc378daa952ba7f163c4a11628f55a4df523b3ef60405160405180910390a461156383838360016119fb565b505050565b60006002600083815260200190815260200160002060009054906101000a900473ffffffffffffffffffffffffffffffffffffffff169050919050565b6115ad611119565b73ffffffffffffffffffffffffffffffffffffffff166115cb610b13565b73ffffffffffffffffffffffffffffffffffffffff1614611621576040517f08c379a000000000000000000000000000000000000000000000000000000000815260040161161890613169565b60405180910390fd5b565b6000600660009054906101000a900473ffffffffffffffffffffffffffffffffffffffff16905081600660006101000a81548173ffffffffffffffffffffffffffffffffffffffff021916908373ffffffffffffffffffffffffffffffffffffffff1602179055508173ffffffffffffffffffffffffffffffffffffffff168173ffffffffffffffffffffffffffffffffffffffff167f8be0079c531659141344cd1fd0a4f28419497f9722a3daafe3b4186f6b6457e060405160405180910390a35050565b8173ffffffffffffffffffffffffffffffffffffffff168373ffffffffffffffffffffffffffffffffffffffff1603611757576040517f08c379a000000000000000000000000000000000000000000000000000000000815260040161174e906131d5565b60405180910390fd5b80600560008573ffffffffffffffffffffffffffffffffffffffff1673ffffffffffffffffffffffffffffffffffffffff16815260200190815260200160002060008473ffffffffffffffffffffffffffffffffffffffff1673ffffffffffffffffffffffffffffffffffffffff16815260200190815260200160002060006101000a81548160ff0219169083151502179055508173ffffffffffffffffffffffffffffffffffffffff168373ffffffffffffffffffffffffffffffffffffffff167f17307eab39ab6107e8899845ad3d59bd9653f200f220920489ca2b5937696c3183604051611848919061202a565b60405180910390a3505050565b61186084848461126f565b61186c84848484611a01565b6118ab576040517f08c379a00000000000000000000000000000000000000000000000000000000081526004016118a290613267565b60405180910390fd5b50505050565b606060405180602001604052806000815250905090565b6060600060016118d784611b88565b01905060008167ffffffffffffffff8111156118f6576118f5612470565b5b6040519080825280601f01601f1916602001820160405280156119285781602001600182028036833780820191505090505b509050600082602001820190505b60011561198b578080600190039150507f3031323334353637383961626364656600000000000000000000000000000000600a86061a8153600a858161197f5761197e613287565b5b04945060008503611936575b819350505050919050565b6119b0828260405180602001604052806000815250611cdb565b5050565b60008073ffffffffffffffffffffffffffffffffffffffff166119d683611568565b73ffffffffffffffffffffffffffffffffffffffff1614159050919050565b50505050565b50505050565b6000611a228473ffffffffffffffffffffffffffffffffffffffff16611d36565b15611b7b578373ffffffffffffffffffffffffffffffffffffffff1663150b7a02611a4b611119565b8786866040518563ffffffff1660e01b8152600401611a6d949392919061330b565b6020604051808303816000875af1925050508015611aa957506040513d601f19601f82011682018060405250810190611aa6919061336c565b60015b611b2b573d8060008114611ad9576040519150601f19603f3d011682016040523d82523d6000602084013e611ade565b606091505b506000815103611b23576040517f08c379a0000000000000000000000000000000000000000000000000000000008152600401611b1a90613267565b60405180910390fd5b805181602001fd5b63150b7a0260e01b7bffffffffffffffffffffffffffffffffffffffffffffffffffffffff1916817bffffffffffffffffffffffffffffffffffffffffffffffffffffffff191614915050611b80565b600190505b949350505050565b600080600090507a184f03e93ff9f4daa797ed6e38ed64bf6a1f0100000000000000008310611be6577a184f03e93ff9f4daa797ed6e38ed64bf6a1f0100000000000000008381611bdc57611bdb613287565b5b0492506040810190505b6d04ee2d6d415b85acef81000000008310611c23576d04ee2d6d415b85acef81000000008381611c1957611c18613287565b5b0492506020810190505b662386f26fc100008310611c5257662386f26fc100008381611c4857611c47613287565b5b0492506010810190505b6305f5e1008310611c7b576305f5e1008381611c7157611c70613287565b5b0492506008810190505b6127108310611ca0576127108381611c9657611c95613287565b5b0492506004810190505b60648310611cc35760648381611cb957611cb8613287565b5b0492506002810190505b600a8310611cd2576001810190505b80915050919050565b611ce58383611d59565b611cf26000848484611a01565b611d31576040517f08c379a0000000000000000000000000000000000000000000000000000000008152600401611d2890613267565b60405180910390fd5b505050565b6000808273ffffffffffffffffffffffffffffffffffffffff163b119050919050565b600073ffffffffffffffffffffffffffffffffffffffff168273ffffffffffffffffffffffffffffffffffffffff1603611dc8576040517f08c379a0000000000000000000000000000000000000000000000000000000008152600401611dbf906133e5565b60405180910390fd5b611dd1816119b4565b15611e11576040517f08c379a0000000000000000000000000000000000000000000000000000000008152600401611e0890613451565b60405180910390fd5b611e1f6000838360016119f5565b611e28816119b4565b15611e68576040517f08c379a0000000000000000000000000000000000000000000000000000000008152600401611e5f90613451565b60405180910390fd5b6001600360008473ffffffffffffffffffffffffffffffffffffffff1673ffffffffffffffffffffffffffffffffffffffff16815260200190815260200160002060008282540192505081905550816002600083815260200190815260200160002060006101000a81548173ffffffffffffffffffffffffffffffffffffffff021916908373ffffffffffffffffffffffffffffffffffffffff160217905550808273ffffffffffffffffffffffffffffffffffffffff16600073ffffffffffffffffffffffffffffffffffffffff167fddf252ad1be2c89b69c2b068fc378daa952ba7f163c4a11628f55a4df523b3ef60405160405180910390a4611f726000838360016119fb565b5050565b6000604051905090565b600080fd5b600080fd5b60007fffffffff0000000000000000000000000000000000000000000000000000000082169050919050565b611fbf81611f8a565b8114611fca57600080fd5b50565b600081359050611fdc81611fb6565b92915050565b600060208284031215611ff857611ff7611f80565b5b600061200684828501611fcd565b91505092915050565b60008115159050919050565b6120248161200f565b82525050565b600060208201905061203f600083018461201b565b92915050565b6000819050919050565b61205881612045565b82525050565b6000602082019050612073600083018461204f565b92915050565b600081519050919050565b600082825260208201905092915050565b60005b838110156120b3578082015181840152602081019050612098565b60008484015250505050565b6000601f19601f8301169050919050565b60006120db82612079565b6120e58185612084565b93506120f5818560208601612095565b6120fe816120bf565b840191505092915050565b6000602082019050818103600083015261212381846120d0565b905092915050565b61213481612045565b811461213f57600080fd5b50565b6000813590506121518161212b565b92915050565b60006020828403121561216d5761216c611f80565b5b600061217b84828501612142565b91505092915050565b600073ffffffffffffffffffffffffffffffffffffffff82169050919050565b60006121af82612184565b9050919050565b6121bf816121a4565b82525050565b60006020820190506121da60008301846121b6565b92915050565b6121e9816121a4565b81146121f457600080fd5b50565b600081359050612206816121e0565b92915050565b6000806040838503121561222357612222611f80565b5b6000612231858286016121f7565b925050602061224285828601612142565b9150509250929050565b60008060006060848603121561226557612264611f80565b5b6000612273868287016121f7565b9350506020612284868287016121f7565b925050604061229586828701612142565b9150509250925092565b600081519050919050565b600082825260208201905092915050565b6000819050602082019050919050565b600082825260208201905092915050565b60006122e782612079565b6122f181856122cb565b9350612301818560208601612095565b61230a816120bf565b840191505092915050565b600061232183836122dc565b905092915050565b6000602082019050919050565b60006123418261229f565b61234b81856122aa565b93508360208202850161235d856122bb565b8060005b85811015612399578484038952815161237a8582612315565b945061238583612329565b925060208a01995050600181019050612361565b50829750879550505050505092915050565b600060208201905081810360008301526123c58184612336565b905092915050565b6000602082840312156123e3576123e2611f80565b5b60006123f1848285016121f7565b91505092915050565b6124038161200f565b811461240e57600080fd5b50565b600081359050612420816123fa565b92915050565b6000806040838503121561243d5761243c611f80565b5b600061244b858286016121f7565b925050602061245c85828601612411565b9150509250929050565b600080fd5b600080fd5b7f4e487b7100000000000000000000000000000000000000000000000000000000600052604160045260246000fd5b6124a8826120bf565b810181811067ffffffffffffffff821117156124c7576124c6612470565b5b80604052505050565b60006124da611f76565b90506124e6828261249f565b919050565b600067ffffffffffffffff82111561250657612505612470565b5b61250f826120bf565b9050602081019050919050565b82818337600083830152505050565b600061253e612539846124eb565b6124d0565b90508281526020810184848401111561255a5761255961246b565b5b61256584828561251c565b509392505050565b600082601f83011261258257612581612466565b5b813561259284826020860161252b565b91505092915050565b600080600080608085870312156125b5576125b4611f80565b5b60006125c3878288016121f7565b94505060206125d4878288016121f7565b93505060406125e587828801612142565b925050606085013567ffffffffffffffff81111561260657612605611f85565b5b6126128782880161256d565b91505092959194509250565b600067ffffffffffffffff82111561263957612638612470565b5b612642826120bf565b9050602081019050919050565b600061266261265d8461261e565b6124d0565b90508281526020810184848401111561267e5761267d61246b565b5b61268984828561251c565b509392505050565b600082601f8301126126a6576126a5612466565b5b81356126b684826020860161264f565b91505092915050565b600080604083850312156126d6576126d5611f80565b5b600083013567ffffffffffffffff8111156126f4576126f3611f85565b5b61270085828601612691565b925050602083013567ffffffffffffffff81111561272157612720611f85565b5b61272d85828601612691565b9150509250929050565b6000806040838503121561274e5761274d611f80565b5b600061275c858286016121f7565b925050602061276d858286016121f7565b9150509250929050565b7f4e487b7100000000000000000000000000000000000000000000000000000000600052602260045260246000fd5b600060028204905060018216806127be57607f821691505b6020821081036127d1576127d0612777565b5b50919050565b7f4552433732313a20617070726f76616c20746f2063757272656e74206f776e6560008201527f7200000000000000000000000000000000000000000000000000000000000000602082015250565b6000612833602183612084565b915061283e826127d7565b604082019050919050565b6000602082019050818103600083015261286281612826565b9050919050565b7f4552433732313a20617070726f76652063616c6c6572206973206e6f7420746f60008201527f6b656e206f776e6572206f7220617070726f76656420666f7220616c6c000000602082015250565b60006128c5603d83612084565b91506128d082612869565b604082019050919050565b600060208201905081810360008301526128f4816128b8565b9050919050565b7f4552433732313a2063616c6c6572206973206e6f7420746f6b656e206f776e6560008201527f72206f7220617070726f76656400000000000000000000000000000000000000602082015250565b6000612957602d83612084565b9150612962826128fb565b604082019050919050565b600060208201905081810360008301526129868161294a565b9050919050565b7f52657175657374696e672050726f6d707420666f72206e6f6e6578697374656e60008201527f7420746f6b656e00000000000000000000000000000000000000000000000000602082015250565b60006129e9602783612084565b91506129f48261298d565b604082019050919050565b60006020820190508181036000830152612a18816129dc565b9050919050565b7f4e487b7100000000000000000000000000000000000000000000000000000000600052603260045260246000fd5b7f4e487b7100000000000000000000000000000000000000000000000000000000600052601160045260246000fd5b6000612a8882612045565b91507fffffffffffffffffffffffffffffffffffffffffffffffffffffffffffffffff8203612aba57612ab9612a4e565b5b600182019050919050565b7f4552433732313a20696e76616c696420746f6b656e2049440000000000000000600082015250565b6000612afb601883612084565b9150612b0682612ac5565b602082019050919050565b60006020820190508181036000830152612b2a81612aee565b9050919050565b7f4552433732313a2061646472657373207a65726f206973206e6f74206120766160008201527f6c6964206f776e65720000000000000000000000000000000000000000000000602082015250565b6000612b8d602983612084565b9150612b9882612b31565b604082019050919050565b60006020820190508181036000830152612bbc81612b80565b9050919050565b7f52657175657374696e672055524920666f72206e6f6e2d6578697374656e742060008201527f746f6b656e000000000000000000000000000000000000000000000000000000602082015250565b6000612c1f602583612084565b9150612c2a82612bc3565b604082019050919050565b60006020820190508181036000830152612c4e81612c12565b9050919050565b600081905092915050565b6000612c6b82612079565b612c758185612c55565b9350612c85818560208601612095565b80840191505092915050565b6000612c9d8285612c60565b9150612ca98284612c60565b91508190509392505050565b60008190508160005260206000209050919050565b60006020601f8301049050919050565b600082821b905092915050565b600060088302612d177fffffffffffffffffffffffffffffffffffffffffffffffffffffffffffffffff82612cda565b612d218683612cda565b95508019841693508086168417925050509392505050565b6000819050919050565b6000612d5e612d59612d5484612045565b612d39565b612045565b9050919050565b6000819050919050565b612d7883612d43565b612d8c612d8482612d65565b848454612ce7565b825550505050565b600090565b612da1612d94565b612dac818484612d6f565b505050565b5b81811015612dd057612dc5600082612d99565b600181019050612db2565b5050565b601f821115612e1557612de681612cb5565b612def84612cca565b81016020851015612dfe578190505b612e12612e0a85612cca565b830182612db1565b50505b505050565b600082821c905092915050565b6000612e3860001984600802612e1a565b1980831691505092915050565b6000612e518383612e27565b9150826002028217905092915050565b612e6a82612079565b67ffffffffffffffff811115612e8357612e82612470565b5b612e8d82546127a6565b612e98828285612dd4565b600060209050601f831160018114612ecb5760008415612eb9578287015190505b612ec38582612e45565b865550612f2b565b601f198416612ed986612cb5565b60005b82811015612f0157848901518255600182019150602085019450602081019050612edc565b86831015612f1e5784890151612f1a601f891682612e27565b8355505b6001600288020188555050505b505050505050565b6000612f3e82612045565b9150612f4983612045565b9250828201905080821115612f6157612f60612a4e565b5b92915050565b7f4f776e61626c653a206e6577206f776e657220697320746865207a65726f206160008201527f6464726573730000000000000000000000000000000000000000000000000000602082015250565b6000612fc3602683612084565b9150612fce82612f67565b604082019050919050565b60006020820190508181036000830152612ff281612fb6565b9050919050565b7f4552433732313a207472616e736665722066726f6d20696e636f72726563742060008201527f6f776e6572000000000000000000000000000000000000000000000000000000602082015250565b6000613055602583612084565b915061306082612ff9565b604082019050919050565b6000602082019050818103600083015261308481613048565b9050919050565b7f4552433732313a207472616e7366657220746f20746865207a65726f2061646460008201527f7265737300000000000000000000000000000000000000000000000000000000602082015250565b60006130e7602483612084565b91506130f28261308b565b604082019050919050565b60006020820190508181036000830152613116816130da565b9050919050565b7f4f776e61626c653a2063616c6c6572206973206e6f7420746865206f776e6572600082015250565b6000613153602083612084565b915061315e8261311d565b602082019050919050565b6000602082019050818103600083015261318281613146565b9050919050565b7f4552433732313a20617070726f766520746f2063616c6c657200000000000000600082015250565b60006131bf601983612084565b91506131ca82613189565b602082019050919050565b600060208201905081810360008301526131ee816131b2565b9050919050565b7f4552433732313a207472616e7366657220746f206e6f6e20455243373231526560008201527f63656976657220696d706c656d656e7465720000000000000000000000000000602082015250565b6000613251603283612084565b915061325c826131f5565b604082019050919050565b6000602082019050818103600083015261328081613244565b9050919050565b7f4e487b7100000000000000000000000000000000000000000000000000000000600052601260045260246000fd5b600081519050919050565b600082825260208201905092915050565b60006132dd826132b6565b6132e781856132c1565b93506132f7818560208601612095565b613300816120bf565b840191505092915050565b600060808201905061332060008301876121b6565b61332d60208301866121b6565b61333a604083018561204f565b818103606083015261334c81846132d2565b905095945050505050565b60008151905061336681611fb6565b92915050565b60006020828403121561338257613381611f80565b5b600061339084828501613357565b91505092915050565b7f4552433732313a206d696e7420746f20746865207a65726f2061646472657373600082015250565b60006133cf602083612084565b91506133da82613399565b602082019050919050565b600060208201905081810360008301526133fe816133c2565b9050919050565b7f4552433732313a20746f6b656e20616c7265616479206d696e74656400000000600082015250565b600061343b601c83612084565b915061344682613405565b602082019050919050565b6000602082019050818103600083015261346a8161342e565b905091905056fea2646970667358221220bba4b87bfee5487567caa5f349121ce8df39152520a781c1cceec82b6861013664736f6c63430008120033",
  "linkReferences": {},
  "deployedLinkReferences": {}
}